{
  "_format": "hh-sol-artifact-1",
  "contractName": "TokenPlatform",
  "sourceName": "contracts/TokenPlatform.sol",
  "abi": [
    {
      "inputs": [],
      "stateMutability": "nonpayable",
      "type": "constructor"
    },
    {
      "anonymous": false,
      "inputs": [
        {
          "indexed": true,
          "internalType": "uint256",
          "name": "itemId",
          "type": "uint256"
        },
        {
          "indexed": true,
          "internalType": "address",
          "name": "tokenContract",
          "type": "address"
        },
        {
          "indexed": true,
          "internalType": "uint256",
          "name": "tokenId",
          "type": "uint256"
        },
        {
          "indexed": false,
          "internalType": "address payable",
          "name": "board",
          "type": "address"
        },
        {
          "indexed": false,
          "internalType": "address payable",
          "name": "owner",
          "type": "address"
        },
        {
          "indexed": false,
          "internalType": "address",
          "name": "receiver",
          "type": "address"
        },
        {
          "indexed": false,
          "internalType": "uint256",
          "name": "price",
          "type": "uint256"
        },
        {
          "indexed": false,
          "internalType": "bool",
          "name": "issued",
          "type": "bool"
        }
      ],
      "name": "CertificationCreated",
      "type": "event"
    },
    {
      "inputs": [
        {
          "internalType": "address",
          "name": "tokenContract",
          "type": "address"
        },
        {
          "internalType": "address",
          "name": "receiver",
          "type": "address"
        },
        {
          "internalType": "uint256",
          "name": "tokenId",
          "type": "uint256"
        },
        {
          "internalType": "uint256",
          "name": "price",
          "type": "uint256"
        }
      ],
      "name": "createCertificate",
      "outputs": [],
      "stateMutability": "payable",
      "type": "function"
    },
    {
      "inputs": [
        {
          "internalType": "address",
          "name": "tokenContract",
          "type": "address"
        },
        {
          "internalType": "uint256",
          "name": "itemId",
          "type": "uint256"
        }
      ],
      "name": "createMarketSale",
      "outputs": [],
      "stateMutability": "payable",
      "type": "function"
    },
    {
      "inputs": [],
      "name": "fetchItemsCreated",
      "outputs": [
        {
          "components": [
            {
              "internalType": "uint256",
              "name": "itemId",
              "type": "uint256"
            },
            {
              "internalType": "address",
              "name": "tokenContract",
              "type": "address"
            },
            {
              "internalType": "uint256",
              "name": "tokenId",
              "type": "uint256"
            },
            {
              "internalType": "address payable",
              "name": "board",
              "type": "address"
            },
            {
              "internalType": "address payable",
              "name": "owner",
              "type": "address"
            },
            {
              "internalType": "address",
              "name": "receiver",
              "type": "address"
            },
            {
              "internalType": "uint256",
              "name": "price",
              "type": "uint256"
            },
            {
              "internalType": "bool",
              "name": "issued",
              "type": "bool"
            }
          ],
          "internalType": "struct TokenPlatform.Certification[]",
          "name": "",
          "type": "tuple[]"
        }
      ],
      "stateMutability": "view",
      "type": "function"
    },
    {
      "inputs": [],
      "name": "fetchMarketItems",
      "outputs": [
        {
          "components": [
            {
              "internalType": "uint256",
              "name": "itemId",
              "type": "uint256"
            },
            {
              "internalType": "address",
              "name": "tokenContract",
              "type": "address"
            },
            {
              "internalType": "uint256",
              "name": "tokenId",
              "type": "uint256"
            },
            {
              "internalType": "address payable",
              "name": "board",
              "type": "address"
            },
            {
              "internalType": "address payable",
              "name": "owner",
              "type": "address"
            },
            {
              "internalType": "address",
              "name": "receiver",
              "type": "address"
            },
            {
              "internalType": "uint256",
              "name": "price",
              "type": "uint256"
            },
            {
              "internalType": "bool",
              "name": "issued",
              "type": "bool"
            }
          ],
          "internalType": "struct TokenPlatform.Certification[]",
          "name": "",
          "type": "tuple[]"
        }
      ],
      "stateMutability": "view",
      "type": "function"
    },
    {
      "inputs": [],
      "name": "fetchMyCertificates",
      "outputs": [
        {
          "components": [
            {
              "internalType": "uint256",
              "name": "itemId",
              "type": "uint256"
            },
            {
              "internalType": "address",
              "name": "tokenContract",
              "type": "address"
            },
            {
              "internalType": "uint256",
              "name": "tokenId",
              "type": "uint256"
            },
            {
              "internalType": "address payable",
              "name": "board",
              "type": "address"
            },
            {
              "internalType": "address payable",
              "name": "owner",
              "type": "address"
            },
            {
              "internalType": "address",
              "name": "receiver",
              "type": "address"
            },
            {
              "internalType": "uint256",
              "name": "price",
              "type": "uint256"
            },
            {
              "internalType": "bool",
              "name": "issued",
              "type": "bool"
            }
          ],
          "internalType": "struct TokenPlatform.Certification[]",
          "name": "",
          "type": "tuple[]"
        }
      ],
      "stateMutability": "view",
      "type": "function"
    },
    {
      "inputs": [],
      "name": "getListingPrice",
      "outputs": [
        {
          "internalType": "uint256",
          "name": "",
          "type": "uint256"
        }
      ],
      "stateMutability": "view",
      "type": "function"
    },
    {
      "inputs": [
        {
          "internalType": "address",
          "name": "r",
          "type": "address"
        }
      ],
      "name": "searchCertificates",
      "outputs": [
        {
          "components": [
            {
              "internalType": "uint256",
              "name": "itemId",
              "type": "uint256"
            },
            {
              "internalType": "address",
              "name": "tokenContract",
              "type": "address"
            },
            {
              "internalType": "uint256",
              "name": "tokenId",
              "type": "uint256"
            },
            {
              "internalType": "address payable",
              "name": "board",
              "type": "address"
            },
            {
              "internalType": "address payable",
              "name": "owner",
              "type": "address"
            },
            {
              "internalType": "address",
              "name": "receiver",
              "type": "address"
            },
            {
              "internalType": "uint256",
              "name": "price",
              "type": "uint256"
            },
            {
              "internalType": "bool",
              "name": "issued",
              "type": "bool"
            }
          ],
          "internalType": "struct TokenPlatform.Certification[]",
          "name": "",
          "type": "tuple[]"
        }
      ],
      "stateMutability": "view",
      "type": "function"
    },
    {
      "inputs": [
        {
          "internalType": "uint256",
          "name": "_price",
          "type": "uint256"
        }
      ],
      "name": "setListingPrice",
      "outputs": [
        {
          "internalType": "uint256",
          "name": "",
          "type": "uint256"
        }
      ],
      "stateMutability": "nonpayable",
      "type": "function"
    }
  ],
  "bytecode": "0x60806040526658d15e1762800060045534801561001b57600080fd5b50600160008190555033600360006101000a81548173ffffffffffffffffffffffffffffffffffffffff021916908373ffffffffffffffffffffffffffffffffffffffff1602179055506120ec806100746000396000f3fe60806040526004361061007b5760003560e01c80637c726b691161004e5780637c726b691461013e578063afd7e7811461017b578063c23b139e14610197578063f064c32e146101b35761007b565b80630f08efe01461008057806312e85585146100ab5780633a6d4a56146100d65780635138f19814610101575b600080fd5b34801561008c57600080fd5b506100956101de565b6040516100a29190611d0f565b60405180910390f35b3480156100b757600080fd5b506100c0610561565b6040516100cd9190611db1565b60405180910390f35b3480156100e257600080fd5b506100eb61056b565b6040516100f89190611d0f565b60405180910390f35b34801561010d57600080fd5b5061012860048036038101906101239190611977565b610972565b6040516101359190611d0f565b60405180910390f35b34801561014a57600080fd5b5061016560048036038101906101609190611a3f565b610d7b565b6040516101729190611db1565b60405180910390f35b610195600480360381019061019091906119a0565b610dc3565b005b6101b160048036038101906101ac9190611a03565b61118e565b005b3480156101bf57600080fd5b506101c8611483565b6040516101d59190611d0f565b60405180910390f35b606060006101ec600161188a565b905060006101fa600261188a565b610204600161188a565b61020e9190611e6c565b90506000808267ffffffffffffffff811115610253577f4e487b7100000000000000000000000000000000000000000000000000000000600052604160045260246000fd5b60405190808252806020026020018201604052801561028c57816020015b6102796118ae565b8152602001906001900390816102715790505b50905060005b8481101561055657600073ffffffffffffffffffffffffffffffffffffffff16600560006001846102c39190611e16565b815260200190815260200160002060040160009054906101000a900473ffffffffffffffffffffffffffffffffffffffff1673ffffffffffffffffffffffffffffffffffffffff161415610543576000600560006001846103249190611e16565b815260200190815260200160002060000154905060006005600083815260200190815260200160002090508060405180610100016040529081600082015481526020016001820160009054906101000a900473ffffffffffffffffffffffffffffffffffffffff1673ffffffffffffffffffffffffffffffffffffffff1673ffffffffffffffffffffffffffffffffffffffff168152602001600282015481526020016003820160009054906101000a900473ffffffffffffffffffffffffffffffffffffffff1673ffffffffffffffffffffffffffffffffffffffff1673ffffffffffffffffffffffffffffffffffffffff1681526020016004820160009054906101000a900473ffffffffffffffffffffffffffffffffffffffff1673ffffffffffffffffffffffffffffffffffffffff1673ffffffffffffffffffffffffffffffffffffffff1681526020016005820160009054906101000a900473ffffffffffffffffffffffffffffffffffffffff1673ffffffffffffffffffffffffffffffffffffffff1673ffffffffffffffffffffffffffffffffffffffff168152602001600682015481526020016007820160009054906101000a900460ff161515151581525050848681518110610526577f4e487b7100000000000000000000000000000000000000000000000000000000600052603260045260246000fd5b602002602001018190525060018561053e9190611e16565b945050505b808061054e90611efa565b915050610292565b508094505050505090565b6000600454905090565b60606000610579600161188a565b905060008060005b83811015610622573373ffffffffffffffffffffffffffffffffffffffff16600560006001846105b19190611e16565b815260200190815260200160002060040160009054906101000a900473ffffffffffffffffffffffffffffffffffffffff1673ffffffffffffffffffffffffffffffffffffffff16141561060f5760018361060c9190611e16565b92505b808061061a90611efa565b915050610581565b5060008267ffffffffffffffff811115610665577f4e487b7100000000000000000000000000000000000000000000000000000000600052604160045260246000fd5b60405190808252806020026020018201604052801561069e57816020015b61068b6118ae565b8152602001906001900390816106835790505b50905060005b84811015610967573373ffffffffffffffffffffffffffffffffffffffff16600560006001846106d49190611e16565b815260200190815260200160002060040160009054906101000a900473ffffffffffffffffffffffffffffffffffffffff1673ffffffffffffffffffffffffffffffffffffffff161415610954576000600560006001846107359190611e16565b815260200190815260200160002060000154905060006005600083815260200190815260200160002090508060405180610100016040529081600082015481526020016001820160009054906101000a900473ffffffffffffffffffffffffffffffffffffffff1673ffffffffffffffffffffffffffffffffffffffff1673ffffffffffffffffffffffffffffffffffffffff168152602001600282015481526020016003820160009054906101000a900473ffffffffffffffffffffffffffffffffffffffff1673ffffffffffffffffffffffffffffffffffffffff1673ffffffffffffffffffffffffffffffffffffffff1681526020016004820160009054906101000a900473ffffffffffffffffffffffffffffffffffffffff1673ffffffffffffffffffffffffffffffffffffffff1673ffffffffffffffffffffffffffffffffffffffff1681526020016005820160009054906101000a900473ffffffffffffffffffffffffffffffffffffffff1673ffffffffffffffffffffffffffffffffffffffff1673ffffffffffffffffffffffffffffffffffffffff168152602001600682015481526020016007820160009054906101000a900460ff161515151581525050848681518110610937577f4e487b7100000000000000000000000000000000000000000000000000000000600052603260045260246000fd5b602002602001018190525060018561094f9190611e16565b945050505b808061095f90611efa565b9150506106a4565b508094505050505090565b60606000610980600161188a565b905060008060005b83811015610a29578573ffffffffffffffffffffffffffffffffffffffff16600560006001846109b89190611e16565b815260200190815260200160002060030160009054906101000a900473ffffffffffffffffffffffffffffffffffffffff1673ffffffffffffffffffffffffffffffffffffffff161415610a1657600183610a139190611e16565b92505b8080610a2190611efa565b915050610988565b5060008267ffffffffffffffff811115610a6c577f4e487b7100000000000000000000000000000000000000000000000000000000600052604160045260246000fd5b604051908082528060200260200182016040528015610aa557816020015b610a926118ae565b815260200190600190039081610a8a5790505b50905060005b84811015610d6e578673ffffffffffffffffffffffffffffffffffffffff1660056000600184610adb9190611e16565b815260200190815260200160002060030160009054906101000a900473ffffffffffffffffffffffffffffffffffffffff1673ffffffffffffffffffffffffffffffffffffffff161415610d5b57600060056000600184610b3c9190611e16565b815260200190815260200160002060000154905060006005600083815260200190815260200160002090508060405180610100016040529081600082015481526020016001820160009054906101000a900473ffffffffffffffffffffffffffffffffffffffff1673ffffffffffffffffffffffffffffffffffffffff1673ffffffffffffffffffffffffffffffffffffffff168152602001600282015481526020016003820160009054906101000a900473ffffffffffffffffffffffffffffffffffffffff1673ffffffffffffffffffffffffffffffffffffffff1673ffffffffffffffffffffffffffffffffffffffff1681526020016004820160009054906101000a900473ffffffffffffffffffffffffffffffffffffffff1673ffffffffffffffffffffffffffffffffffffffff1673ffffffffffffffffffffffffffffffffffffffff1681526020016005820160009054906101000a900473ffffffffffffffffffffffffffffffffffffffff1673ffffffffffffffffffffffffffffffffffffffff1673ffffffffffffffffffffffffffffffffffffffff168152602001600682015481526020016007820160009054906101000a900460ff161515151581525050848681518110610d3e577f4e487b7100000000000000000000000000000000000000000000000000000000600052603260045260246000fd5b6020026020010181905250600185610d569190611e16565b945050505b8080610d6690611efa565b915050610aab565b5080945050505050919050565b60003073ffffffffffffffffffffffffffffffffffffffff163373ffffffffffffffffffffffffffffffffffffffff161415610db957816004819055505b6004549050919050565b60026000541415610e09576040517f08c379a0000000000000000000000000000000000000000000000000000000008152600401610e0090611d91565b60405180910390fd5b600260008190555060008111610e54576040517f08c379a0000000000000000000000000000000000000000000000000000000008152600401610e4b90611d31565b60405180910390fd5b6004543414610e98576040517f08c379a0000000000000000000000000000000000000000000000000000000008152600401610e8f90611d71565b60405180910390fd5b610ea26001611898565b6000610eae600161188a565b90506040518061010001604052808281526020018673ffffffffffffffffffffffffffffffffffffffff1681526020018481526020013373ffffffffffffffffffffffffffffffffffffffff168152602001600073ffffffffffffffffffffffffffffffffffffffff1681526020018573ffffffffffffffffffffffffffffffffffffffff16815260200183815260200160001515815250600560008381526020019081526020016000206000820151816000015560208201518160010160006101000a81548173ffffffffffffffffffffffffffffffffffffffff021916908373ffffffffffffffffffffffffffffffffffffffff1602179055506040820151816002015560608201518160030160006101000a81548173ffffffffffffffffffffffffffffffffffffffff021916908373ffffffffffffffffffffffffffffffffffffffff16021790555060808201518160040160006101000a81548173ffffffffffffffffffffffffffffffffffffffff021916908373ffffffffffffffffffffffffffffffffffffffff16021790555060a08201518160050160006101000a81548173ffffffffffffffffffffffffffffffffffffffff021916908373ffffffffffffffffffffffffffffffffffffffff16021790555060c0820151816006015560e08201518160070160006101000a81548160ff0219169083151502179055509050508473ffffffffffffffffffffffffffffffffffffffff166323b872dd3330866040518463ffffffff1660e01b81526004016110f393929190611cd8565b600060405180830381600087803b15801561110d57600080fd5b505af1158015611121573d6000803e3d6000fd5b50505050828573ffffffffffffffffffffffffffffffffffffffff16827fbb6b657178bbdc48277d57bf5e52a9cfd225f9dd924f1e9fc2d8f96dfac13ba433600089886000604051611177959493929190611c85565b60405180910390a450600160008190555050505050565b600260005414156111d4576040517f08c379a00000000000000000000000000000000000000000000000000000000081526004016111cb90611d91565b60405180910390fd5b600260008190555060006005600083815260200190815260200160002060060154905060006005600084815260200190815260200160002060020154905060006005600085815260200190815260200160002060050160009054906101000a900473ffffffffffffffffffffffffffffffffffffffff16905082341461128f576040517f08c379a000000000000000000000000000000000000000000000000000000000815260040161128690611d51565b60405180910390fd5b6005600085815260200190815260200160002060030160009054906101000a900473ffffffffffffffffffffffffffffffffffffffff1673ffffffffffffffffffffffffffffffffffffffff166108fc349081150290604051600060405180830381858888f1935050505015801561130b573d6000803e3d6000fd5b508473ffffffffffffffffffffffffffffffffffffffff166342842e0e3033856040518463ffffffff1660e01b815260040161134993929190611cd8565b600060405180830381600087803b15801561136357600080fd5b505af1158015611377573d6000803e3d6000fd5b50505050336005600086815260200190815260200160002060040160006101000a81548173ffffffffffffffffffffffffffffffffffffffff021916908373ffffffffffffffffffffffffffffffffffffffff16021790555060016005600086815260200190815260200160002060070160006101000a81548160ff0219169083151502179055506114096002611898565b600360009054906101000a900473ffffffffffffffffffffffffffffffffffffffff1673ffffffffffffffffffffffffffffffffffffffff166108fc6004549081150290604051600060405180830381858888f19350505050158015611473573d6000803e3d6000fd5b5050505060016000819055505050565b60606000611491600161188a565b905060008060005b8381101561153a573373ffffffffffffffffffffffffffffffffffffffff16600560006001846114c99190611e16565b815260200190815260200160002060030160009054906101000a900473ffffffffffffffffffffffffffffffffffffffff1673ffffffffffffffffffffffffffffffffffffffff161415611527576001836115249190611e16565b92505b808061153290611efa565b915050611499565b5060008267ffffffffffffffff81111561157d577f4e487b7100000000000000000000000000000000000000000000000000000000600052604160045260246000fd5b6040519080825280602002602001820160405280156115b657816020015b6115a36118ae565b81526020019060019003908161159b5790505b50905060005b8481101561187f573373ffffffffffffffffffffffffffffffffffffffff16600560006001846115ec9190611e16565b815260200190815260200160002060030160009054906101000a900473ffffffffffffffffffffffffffffffffffffffff1673ffffffffffffffffffffffffffffffffffffffff16141561186c5760006005600060018461164d9190611e16565b815260200190815260200160002060000154905060006005600083815260200190815260200160002090508060405180610100016040529081600082015481526020016001820160009054906101000a900473ffffffffffffffffffffffffffffffffffffffff1673ffffffffffffffffffffffffffffffffffffffff1673ffffffffffffffffffffffffffffffffffffffff168152602001600282015481526020016003820160009054906101000a900473ffffffffffffffffffffffffffffffffffffffff1673ffffffffffffffffffffffffffffffffffffffff1673ffffffffffffffffffffffffffffffffffffffff1681526020016004820160009054906101000a900473ffffffffffffffffffffffffffffffffffffffff1673ffffffffffffffffffffffffffffffffffffffff1673ffffffffffffffffffffffffffffffffffffffff1681526020016005820160009054906101000a900473ffffffffffffffffffffffffffffffffffffffff1673ffffffffffffffffffffffffffffffffffffffff1673ffffffffffffffffffffffffffffffffffffffff168152602001600682015481526020016007820160009054906101000a900460ff16151515158152505084868151811061184f577f4e487b7100000000000000000000000000000000000000000000000000000000600052603260045260246000fd5b60200260200101819052506001856118679190611e16565b945050505b808061187790611efa565b9150506115bc565b508094505050505090565b600081600001549050919050565b6001816000016000828254019250508190555050565b60405180610100016040528060008152602001600073ffffffffffffffffffffffffffffffffffffffff16815260200160008152602001600073ffffffffffffffffffffffffffffffffffffffff168152602001600073ffffffffffffffffffffffffffffffffffffffff168152602001600073ffffffffffffffffffffffffffffffffffffffff168152602001600081526020016000151581525090565b60008135905061195c81612088565b92915050565b6000813590506119718161209f565b92915050565b60006020828403121561198957600080fd5b60006119978482850161194d565b91505092915050565b600080600080608085870312156119b657600080fd5b60006119c48782880161194d565b94505060206119d58782880161194d565b93505060406119e687828801611962565b92505060606119f787828801611962565b91505092959194509250565b60008060408385031215611a1657600080fd5b6000611a248582860161194d565b9250506020611a3585828601611962565b9150509250929050565b600060208284031215611a5157600080fd5b6000611a5f84828501611962565b91505092915050565b6000611a748383611bc5565b6101008301905092915050565b611a8a81611eb2565b82525050565b611a9981611eb2565b82525050565b611aa881611ea0565b82525050565b611ab781611ea0565b82525050565b6000611ac882611ddc565b611ad28185611df4565b9350611add83611dcc565b8060005b83811015611b0e578151611af58882611a68565b9750611b0083611de7565b925050600181019050611ae1565b5085935050505092915050565b611b2481611ec4565b82525050565b611b3381611ec4565b82525050565b6000611b46602883611e05565b9150611b5182611f72565b604082019050919050565b6000611b69603b83611e05565b9150611b7482611fc1565b604082019050919050565b6000611b8c602483611e05565b9150611b9782612010565b604082019050919050565b6000611baf601f83611e05565b9150611bba8261205f565b602082019050919050565b61010082016000820151611bdc6000850182611c67565b506020820151611bef6020850182611a9f565b506040820151611c026040850182611c67565b506060820151611c156060850182611a81565b506080820151611c286080850182611a81565b5060a0820151611c3b60a0850182611a9f565b5060c0820151611c4e60c0850182611c67565b5060e0820151611c6160e0850182611b1b565b50505050565b611c7081611ef0565b82525050565b611c7f81611ef0565b82525050565b600060a082019050611c9a6000830188611a90565b611ca76020830187611a90565b611cb46040830186611aae565b611cc16060830185611c76565b611cce6080830184611b2a565b9695505050505050565b6000606082019050611ced6000830186611aae565b611cfa6020830185611aae565b611d076040830184611c76565b949350505050565b60006020820190508181036000830152611d298184611abd565b905092915050565b60006020820190508181036000830152611d4a81611b39565b9050919050565b60006020820190508181036000830152611d6a81611b5c565b9050919050565b60006020820190508181036000830152611d8a81611b7f565b9050919050565b60006020820190508181036000830152611daa81611ba2565b9050919050565b6000602082019050611dc66000830184611c76565b92915050565b6000819050602082019050919050565b600081519050919050565b6000602082019050919050565b600082825260208201905092915050565b600082825260208201905092915050565b6000611e2182611ef0565b9150611e2c83611ef0565b9250827fffffffffffffffffffffffffffffffffffffffffffffffffffffffffffffffff03821115611e6157611e60611f43565b5b828201905092915050565b6000611e7782611ef0565b9150611e8283611ef0565b925082821015611e9557611e94611f43565b5b828203905092915050565b6000611eab82611ed0565b9050919050565b6000611ebd82611ed0565b9050919050565b60008115159050919050565b600073ffffffffffffffffffffffffffffffffffffffff82169050919050565b6000819050919050565b6000611f0582611ef0565b91507fffffffffffffffffffffffffffffffffffffffffffffffffffffffffffffffff821415611f3857611f37611f43565b5b600182019050919050565b7f4e487b7100000000000000000000000000000000000000000000000000000000600052601160045260246000fd5b7f50726963652063616e6e6f74206265207a65726f2c2061746c6561737420302e60008201527f3235206574686572000000000000000000000000000000000000000000000000602082015250565b7f506c65617365207375626d6974207468652061736b696e67207072696365206960008201527f6e6f7264657220746f20636f6d706c6574652070757263686173650000000000602082015250565b7f5072696365206d75737420626520657175616c20746f206c697374696e67207060008201527f7269636500000000000000000000000000000000000000000000000000000000602082015250565b7f5265656e7472616e637947756172643a207265656e7472616e742063616c6c00600082015250565b61209181611ea0565b811461209c57600080fd5b50565b6120a881611ef0565b81146120b357600080fd5b5056fea264697066735822122027378d1a7ecb861e7d1d9f87d43f591cecb5185889abb34855254db00e8eca4f64736f6c63430008010033",
  "linkReferences": {},
  "deployedLinkReferences": {}
}